:020000020000FC
:100000002CC0189512C01895189518951895189524
:100010001895189518951895189518951895189578
:040020001895189582
:100028001895772721E092D0712F2A95E1F7783F2C
:1000380009F008C08064672F6F70A3D087D061175C
:1000480009F4806138E44EEC69D037E84EEC66D0AC
:1000580018950FE50DBF02E00EBFE0E6F0E00027BF
:100068000193F230E9F7E036D9F7EE27FF27EEE102
:10007800FF27EA95F083E9F70FEF07BB00EF01BB15
:1000880000E008BB1ED000E005BF9DD000E80BBF14
:1000980005B7006405BF789488950000000000004B
:1000A80070D0F89486FF03C000E402BB70D084FFD0
:1000B80003C000E102BB6BD08827002702BB7894FD
:1000C800EBCFC29AC49AC398BA9ABC9AB9988A983C
:1000D800BB9A00000000000030E040E01FD03CE880
:1000E80049E81CD030E446EA19D037E448EC16D089
:1000F8003BE946EC13D03AE244EC10D030E442EC51
:100108000DD030E840EC0AD034E84EEC07D037E8A0
:100118004EEC04D031E840EC01D008950F93C39819
:10012800C29800E1C3980000000047FDC49A47FF49
:10013800C49800000000C39A00000000330F441F59
:100148000A9581F7C398C29A0F9108950F93C3989F
:10015800C498C2980000000000E1C39A0000C39848
:1001680000000A95D1F7112708E0110FB199116025
:10017800C39A0000C39800000A95B9F7C29A0F9174
:1001880008950F9308EC0A95F1F70F9108950F93CE
:100198001F932F9300E818E321E0015010402040FE
:1001A800E0F72F911F910F9108950F931F932F93AD
:1001B80000E015E32CE001501040204070F72F912B
:1001C8001F910F91089505B70460056005BF089554
:00000001FF
